:100000000C94E6000C9432340C9428340C941E3476
:100010000C9414340C949E320C9476320C944E3220
:100020000C9426320C94C4330C94BA330C94C6321C
:100030000C94E2330C94D8330C942F330C94F63395
:100040000C94EC330C940A340C9488330C94743371
:100050000C947E330C9450340C943C340C94463401
:100060000C94CE330C94B0330C9440330C944B333B
:100070000C94A6330C949C330C946A330C94563332
:100080000C9460330C9492330C9400343D0D3A0D73
:10009000790C370D340D790C310D790C790C790C04
:1000A0002E0D2B0D280D250D790C790C790C790C62
:1000B000790C790C790C790C790C790C220D1F0DC7
:1000C0001C0D190D160D790C130D100D0D0D0A0DCB
:1000D000790C070D790C790C790C790C040D010D54
:1000E000FE0C790C790C790C790C790C790C790C63
:1000F000FB0C790C790C790C790C790C790C790C56
:10010000790C790CF80CF50CF20CEF0CEC0CE90CFA
:10011000E60C790C790C790CE30CE00CDD0CDA0CB4
:10012000D70CD40CD10C790C790C790CCE0CCB0CEF
:10013000C80CC50CC20CBF0CBC0CB90C790C790CEA
:10014000B60CB30CB00CAD0CAA0CA70CA40C790C1B
:10015000790C790CA10C9E0C9B0C980C950C920CB4
:100160008F0C8C0C890C790C860C800C3A14391489
:100170003A1439143A1439143A143A143914391413
:10018000391439143A143A143A143A140D2E5F2DD6
:100190005F2D5F2D342DD32CCE2C852C3A2C202C8A
:1001A000F32B8C2B862B6F2B1E2B112EBC43BF43A6
:1001B000C243C543B143C843B143B143B143B14363
:1001C000CB43CE43D143D443D743B94311241FBEBD
:1001D000CFEFD0E1DEBFCDBF12E0A0E0B1E0ECE3B5
:1001E000FDE800E00BBF02C007900D92AA31B107F5
:1001F000D9F72BE0AAE1B2E001C01D92A43EB207FC
:10020000E1F70E94DA430C949C46CF93DF93BC0144
:100210008091790490917A04FC01D081FB010190D6
:100220000020E9F73197E61BF70B2D2F30E0A901ED
:100230004E0F511D4F3F5105ACF0EEEFCE2FCD1BB1
:100240002F5F3F4F4C2F50E0820F931F0E945E465E
:10025000A0917904B0917A04EC2FED0FEC93DF912B
:10026000CF910895CE2FECCFDF92EF92FF920F93B4
:100270001F93CF93DF93E0917904F0917A04C081CA
:10028000E199FECF8C2F90E0019642E050E060EAC9
:1002900071E08E0F9F1F0E94754682E08C0FE199DE
:1002A000FECF90E001962091790430917A0442E0EB
:1002B00050E062EA71E0820F931F0E94754684E06D
:1002C0008C0FE0917904F0917A04E80FF11DD1E0F0
:1002D000D183E0917904F0917A04CB5FC08380E010
:1002E00091E00E940501E0917904F0917A04008187
:1002F000E00FF11DD18311E0100FE0917904F0912E
:100300007A0410838091790490917A040F5DE12C36
:10031000F12CE199FECFC12FD0E0219641E050E0D1
:10032000B7018C0F9D1F0E947546809179049091B2
:100330007A04FC01EC0FFD1F2081283049F01F5F7B
:100340002FEFE21AF20A0113E4CFC12FD0E0219679
:10035000FC0110838091790490917A04C80FD91F11
:1003600081E0888301E0010F8091790490917A0403
:100370001F5D30E4E32EF12CE199FECFC02FD0E0D9
:10038000219641E050E0B7018C0F9D1F0E947546F9
:100390008091790490917A04FC01EC0FFD1F20817B
:1003A000283049F00F5FFFEFEF1AFF0A0113E4CF87
:1003B000C02FD0E02196FC010083809179049091B8
:1003C0007A04C80FD91F81E08883DD24D394D00E2E
:1003D0008091790490917A0411E2100F20E2E22ECC
:1003E000F12CE199FECFCD2DD0E0219641E050E0F7
:1003F000B7018C0F9D1F0E947546809179049091E2
:100400007A04FC01EC0FFD1F2081283049F0D394C1
:10041000FFEFEF1AFF0A1D11E4CFCD2DD0E021969A
:10042000FC01D0828091790490917A04C80FD91F81
:1004300081E08883E0917904F0917A048D0D8083C6
:10044000DF91CF911F910F91FF90EF90DF90089572
:100450000C9400000E94140C0E943401E091790475
:10046000F0917A0410820895BF92CF92DF92EF92BA
:10047000FF920F931F93CF93DF938AE391E00E9443
:100480000501E0917904F0917A0480818F5F808387
:10049000E0917904F0917A048081E80FF11D81E008
:1004A0008083E0917904F0917A04C08187E291E041
:1004B0000E940501E0917904F0917A04C083A09133
:1004C0007904B0917A042C2F30E0C90101968A0F8B
:1004D0009B1F2E5F3F4FA20FB31FFC0120812A33C9
:1004E00009F44CC2CE3F08F049C29C012F5F3F4F38
:1004F00003C0CE3F09F41FC2F9011196CF5F2F5FF1
:100500003F4F40814A33A9F7BF016E5F7F4FFD0126
:10051000329622E02C0F12963C913032A9F02E3FF9
:1005200098F49F012F5F3F4FABEFAC1BB0E01296EA
:10053000AE0FBF1F03C02A173B0731F0F9012F5F31
:100540003F4F40814032B9F7EF01C61BD70BAE01D8
:100550000E945E46A0917904B0917A04EC91EC0F70
:10056000EC93E0917904F0917A0480818F5F80832D
:10057000E0917904F0917A048081E80FF11D81E027
:100580008083E0917904F0917A04C08189E091E060
:100590000E940501E0917904F0917A04C083E09112
:1005A0007904F0917A042C2F30E0C90101968E0F66
:1005B0009F1F2E5F3F4FE20FF31FDC012C912A3368
:1005C00009F4DAC1CE3F08F0D7C19C012F5F3F4F3D
:1005D00003C0CE3F09F4BCC1D9013196CF5F2F5F74
:1005E0003F4F4C914A33A9F7BD016E5F7F4FAF017A
:1005F0004E5F5F4FCE5F2281203289F0CE3F78F48C
:100600009A012F5F3F4F03C0CE3F09F49FC1A9015C
:10061000CF5F2F5F3F4FDA01EC91E032A9F7DA01AB
:10062000119621E02C0FFA0131813032A9F02E3FD2
:1006300098F49A012E5F3F4FECEFEC1BF0E03396FD
:10064000E40FF51F03C0E217F30731F0D9012F5F64
:100650003F4F5C915032B9F7ED01C61BD70BAE018D
:100660000E945E46E0917904F0917A04A081AC0F7B
:10067000A083E0917904F0917A0480818F5F808378
:10068000E0917904F0917A048081E80FF11D81E016
:10069000808380916A0190916B01B12C11E04BEF46
:1006A000F42E0CEF0E940501E0917904F0917A0498
:1006B00080818F5F8083E0917904F0917A0480815A
:1006C000E80FF11D1083E0917904F0917A04C08164
:1006D00022E0E22EEB0CE1E0EB0DF0E0EE0FFF1F6D
:1006E000E659FE4F808191810E940501E0917904D5
:1006F000F0917A04C083E0917904F0917A042C2F70
:1007000030E0C90101968E0F9F1F2E5F3F4FE20F11
:10071000F31FDC012C912A3309F40BC1CE3F08F002
:1007200008C19C012F5F3F4F03C0CE3F09F4F5C0C5
:10073000D9013196CF5F2F5F3F4F4C914A33A9F7D4
:10074000BD016E5F7F4FDF01129632E03C0F2281C8
:100750002032A9F03E3F98F49D012F5F3F4FEF2DCF
:10076000EC1BF0E03296EA0FFB1F03C02E173F0789
:1007700031F0D9012F5F3F4F4C914032B9F76D01F5
:10078000C61AD70AA6010E945E46E0917904F0914C
:100790007A048081C80EC082E0917904F0917A04D5
:1007A00080818F5F8083E0917904F0917A04808169
:1007B000E80FF11D1083E0917904F0917A04C08173
:1007C000B3E0BB0EEE2DF0E0EE0FFF1FE659FE4F3B
:1007D000808191810E940501E0917904F0917A0471
:1007E000C083E0917904F0917A042C2F30E0C901A4
:1007F00001968E0F9F1F2E5F3F4FE20FF31FDC010C
:100800002C912A3309F493C0CE3F08F090C09C018C
:100810002F5F3F4F03C0CE3F09F475C0D901319619
:10082000CF5F2F5F3F4F4C914A33A9F7BD016E5FF9
:100830007F4FDF011296CE5F2281203281F0CE3FC2
:1008400070F49D012F5F3F4F03C0CE3F09F459C0A4
:10085000D901CF5F2F5F3F4F4C914032B1F7AD01CF
:100860004F5F5F4F31E03C0F11962C911197203272
:10087000B9F03E3FA8F49D012E5F3F4F402F4C1B27
:1008800050E04D5F5F4FA40FB51F03C02A173B0711
:1008900039F0A9012F5F3F4FEA01E881E032B1F75B
:1008A0006A01C61AD70AA6010E945E46E091790441
:1008B000F0917A0440814C0D4083E0917904F091ED
:1008C0007A0480818F5F8083E0917904F0917A04CB
:1008D0008081E80FF11D1083EB2DF0E0EE0FFF1F7C
:1008E000E659FE4F80819181009709F0DBCEDF91C0
:1008F000CF911F910F91FF90EF90DF90CF90BF901D
:100900000895A901CDCFBD016E5F7F4FDF01129623
:100910002281203241F1C0E094CFBD016E5F7F4F54
:10092000DF0112962281203209F016CF28CFDC0198
:100930007DCFDC0105CFBF016E5F7F4FFD01329699
:1009400012962C91203209F0ECCDFECDD90184CE47
:10095000BD016E5F7F4FAF014E5F5F4F228120323E
:1009600079F0C0E04DCEAF014D5F5F4F2381203263
:1009700009F496CFC0E07FCFDC0136CEFC01C4CDB8
:10098000DF0113962381203209F466CEC0E051CEF8
:10099000E0917904F0917A0485E08083A091790454
:1009A000B0917A0489E0E1E0F0E080936800E4919E
:1009B0001296EC931297E0E0F0E080936800E491E7
:1009C0001396EC931397E3E0F0E080936800E491D2
:1009D0001496EC931497E2E0F0E080936800849121
:1009E00015968C9308950C9400F00895E091790485
:1009F000F0917A04118283EB91E00C940501E0916F
:100A00007B04F0917C044481E0917904F0917A04B4
:100A10004F3FD9F081E0840F8083411101C00895D8
:100A2000E0917B04F0917C04628170E0762F662770
:100A30008381680F711D50E0E199FECF80917904A8
:100A400090917A0402960C9475464083E0917B0461
:100A5000F0917C04628170E0762F66278381680FB5
:100A6000711D4EEF50E0E8CFE0917B04F0917C04E3
:100A700040814350E0917904F0917A0482E08083D0
:100A8000E0917904F0917A0481E082834F3FA9F0EC
:100A9000411101C00895E0917B04F0917C046281D2
:100AA00070E0762F66278381680F711D50E0E19911
:100AB000FECFCF0104960C948546E0917B04F09123
:100AC0007C04628170E0762F66278381680F711D38
:100AD0004EEF50E0ECCFEF92FF921F93CF93DF9356
:100AE0008091790490917A04FC011081E0917B045B
:100AF000F0917C04E280F12CFE2CEE242381E20EA6
:100B0000F11C1F31D8F4E199FECFC12FD0E021961E
:100B100041E050E0B7018C0F9D1F0E947546809107
:100B2000790490917A04C80FD91F2881283031F0B8
:100B30001F5FFFEFEF1AFF0A1F3129F7FC01108337
:100B4000DF91CF911F91FF90EF900895BF92CF92C8
:100B5000DF92EF92FF920F931F93CF93DF931F9239
:100B6000CDB7DEB7E0917B04F0917C0480818F01EA
:100B70000C5F1F4F2DEFB22EB80E8FE18B1510F4C6
:100B80009FE1B92EE280F12CFE2CEE248381E80E49
:100B9000F11CBB20F1F16801E199FECF41E050E08A
:100BA000B701C8010E948546E199FECF41E050E0BF
:100BB000B701CE0101960E9475460F5F1F4F9981C4
:100BC000F60180819817F9F088E0898341E050E0D0
:100BD000B701CE0101960E948546E0917904F0911B
:100BE0007A0482E08083E0917904F0917A041282A1
:100BF0000F90DF91CF911F910F91FF90EF90DF90B9
:100C0000CF90BF900895BA94FFEFEF1AFF0AB1108A
:100C1000C2CF88E0898341E050E0B701CE01019660
:100C20000E948546E0917904F0917A0482E0808305
:100C3000E0917904F0917A0481E08283D9CF0F9317
:100C40001F93CF93E0917B04F0917C048281938188
:100C5000928383836281738184818F3F91F0482FD7
:100C600050E0C1E0C80F0091790410917A04C801E6
:100C700002960E945E46F801C083CF911F910F91AA
:100C80000895CFEF4EEF50E0EECFE0917B04F0916E
:100C90007C048281938192838383828193814081CA
:100CA00043504F3F69F050E0BF016C5F7F4F0E949F
:100CB0005E46E0917904F0917A0482E080830895A1
:100CC0004EEF50E0F1CFD90195B7906895BF660F10
:100CD00057FD21C06F705F778823C9F090E002C094
:100CE0008917A9F0609310F3FA01F05C3081FD01DF
:100CF000E90FF11D30834F5F5F4F9F5F57FFF0CFCC
:100D00006F5F603121F040E050E08913EBCF85B791
:100D10008F7785BF08956160DDCFCF93DF9300D0DB
:100D2000CDB7DEB7E0917B04F0917C0484818983A8
:100D300083818A832091790430917A042E5F3F4F1A
:100D400049815A81628185810E946306E09179041C
:100D5000F0917A04A0917B04B0917C0415968C915B
:100D60008F5F80830F900F90DF91CF910895CF9385
:100D7000DF93E90195B7906895BF660F57FD23C0D3
:100D80006F705F778823C9F090E002C08917A9F0DF
:100D9000609310F3FA01F05CDE01A90FB11D3C91E4
:100DA00030834F5F5F4F9F5F57FFF0CF6F5F6031C2
:100DB00021F040E050E08913EBCF85B78F7785BFF6
:100DC000DF91CF9108956160DBCFCF93DF9300D0A7
:100DD000CDB7DEB7E0917B04F0917C0484818983F8
:100DE00083818A839F012B5F3F4F49815A81808194
:100DF000628184500F900F90DF91CF910C94B706D1
:100E0000CF93DF93CDB7DEB7A0970FB6F894DEBFD0
:100E10000FBECDBF80E2E6EDF1E0DE01119601905C
:100E20000D928A95E1F7CE0101960E940501A096E8
:100E30000FB6F894DEBF0FBECDBFDF91CF910895FE
:100E40008330910578F002970197000000000000C0
:100E50000000000000000000000000000000000092
:100E6000000091F708958F30910520F16E317105E2
:100E700008F1F89420917C002E6320937C0020914F
:100E80007D00297D20937D0020917D0028612093A5
:100E90007D00909385008093840070938700609319
:100EA000860010928B0010928C0089E080938A005B
:100EB00078940895F89410928A0080917C008E6353
:100EC00080937C0080917D00817C80937D000895DB
:100ED000E0917B04F0917C0464817581828193812F
:100EE0000C943307E0917B04F0917C04928185B7E8
:100EF000806885BF81E0809320F3909321F39093E5
:100F00001C0285B78F7785BF089595B7906895BF08
:100F100091E0909320F3809321F380931C0285B796
:100F20008F7785BF0895E0917B04F0917C049481D4
:100F30002281E381F0E0F86F85B7806885BF109269
:100F400020F3F22B908385B78F7785BF0895A0910A
:100F50007904B0917A04E0917B04F0917C04928151
:100F6000E381F0E0F86F85B7806885BF109220F3C9
:100F7000F92B908185B78F7785BF12969C93E0916E
:100F80007904F0917A0482E080830895E0917904F5
:100F9000F0917A0480911C02828382E0808308951C
:100FA000E0917B04F0917C04828182B90000000012
:100FB0000000E0917B04F0917C04838183B9000000
:100FC00000000000E0917904F0917A0481B18283FD
:100FD00082E080830895E0917B04F0917C0482811B
:100FE00080936100000000000000E0917B04F0911C
:100FF0007C04838180936200000000000000E09187
:101000007904F0917A0480B1828382E0808308952C
:10101000E0917B04F0917C0482812481968132B13D
:10102000482F4223342B32B932B1482F4095242B1C
:10103000232322B923B1382F3923232B23B923B1FA
:10104000842F892B822383B981B1E0917904F091B7
:101050007A048283E0917B04F0917C048381258172
:1010600097818F70E1E6F0E03081422F4823342BE6
:1010700030833081482F4095242B23232083E2E6C0
:10108000F0E02081392F3823232B20832081842FE7
:10109000892B82238083E0917904F0917A0480B1D6
:1010A000838380818E5F80830895CF93DF93E09167
:1010B0007B04F0917C048281813081F4C0917904B9
:1010C000D0917A04CE0103960E94B4318A83E091D4
:1010D0007904F0917A0480818B5F8083DF91CF91D6
:1010E0000895EF920F931F9390916102892B809343
:1010F0006102EE24EA9400E010E020E041E652E0D4
:1011000061E087E20E948110809161021F910F913E
:10111000EF900895EF920F931F9380959091610245
:10112000892380936102EE24EA9400E010E020E03D
:1011300041E652E061E087E20E9481108091610205
:101140001F910F91EF900895EF920F931F9380934B
:101150006102EE24EA9400E010E020E041E652E073
:1011600061E087E20E948110809161021F910F91DE
:10117000EF9008958F929F92AF92BF92CF92DF929D
:10118000EF92FF920F931F93CF93DF9300D0CDB7D1
:10119000DEB76B017C01198280905D0290905E0247
:1011A000A0905F02B09060029B01AC01C501B40148
:1011B0000E94544487FF3BC0A5019401C701B601BA
:1011C0000E94E7432DED3CED4CE951E40E94594467
:1011D00020E030E040E05FE30E94E8430E94CB441F
:1011E0006A83EE24EA9400E010E020E0AE014F5F55
:1011F0005F4F62E08DE30E948110F82EFF0C20E02B
:10120000AE014F5F5F4F62E08EE30E9481108F2935
:101210000F900F90DF91CF911F910F91FF90EF9062
:10122000DF90CF90BF90AF909F908F90089560E037
:10123000D7CFEF92FF920F931F93CF93DF9300D0FE
:10124000CDB7DEB790E499838A83EE24EA9400E078
:1012500010E020E0AE014F5F5F4F62E08DE30E943F
:101260008110F82EFF0C20E0AE014F5F5F4F62E06F
:101270008EE30E9481108F290F900F90DF91CF9104
:101280001F910F91FF90EF900895A0916702B09188
:1012900068024D91442361F1FD01242F80E090E02C
:1012A0003191830F911D8F3F910519F010F08F5FE1
:1012B00091092150A9F74150242F30E02F5F3F4F73
:1012C000A20FB31F80958C93E0916702F0916802A2
:1012D000208192E0920F59F0319680919B0085FF1A
:1012E000FCCF20939C00915011F02191F6CF0895EE
:1012F0008FEFE9CF1092980080E18093990082E00F
:1013000080939B0088E180939A0086E080939D0003
:1013100010926602E0916A02F0916B021082809155
:101320006A0290916B029093630280936202109222
:10133000690215BC80E486BF87B78F7387BF14BC72
:10134000E9E7F3E0F0936802E093670287E792E051
:1013500090936B0280936A02F0937A04E09379048D
:1013600090937C0480937B0481E0808381830E943E
:1013700034010C94450980919B0087FD08C006B696
:1013800006FE04C08091690281113FC008958091DA
:101390006902882309F45EC040919C00E0916202DA
:1013A000F091630240838091620290916302019602
:1013B00090936302809362022091640230916502EF
:1013C000240F311D2F3F310519F010F02F5F310927
:1013D0003093650220936402E0916A02F0916B02FF
:1013E000208130E02E5F3F4F8E1B9F0B99272817DF
:1013F000390709F44CC015BC14BC80E486BF87B71C
:101400008F7387BF85E085BD0895E0916702F091F5
:10141000680282E08083E0916702F09168028FEFBA
:101420008183E0916702F091680212820E9445096F
:1014300080916A0290916B029093630280936202A2
:101440001092690215BC80E486BF87B78F7387BF8F
:1014500014BC0895109265021092640280919C0061
:10146000882309F44BC08F3F59F5E0916702F09152
:10147000680292E09083E0916702F09168028183B4
:10148000E0916702F091680281E08283CFCF809182
:101490006402909165028F3F910541F1E0916702EE
:1014A000F091680282E08083E0916702F091680227
:1014B0009FEF9183E0916702F09168028283B6CF3B
:1014C000E0916A02F0916B02F0936302E093620292
:1014D00080838091620290916302019690936302EF
:1014E000809362028FEF8093690285CF8FEF8093A4
:1014F0006602F0936302E0936202A2CF8FEF8093C3
:101500006602E0916A02F0916B0281E08083E091D3
:101510006A02F0916B0211828BCFA0917002B091A0
:1015200071024D91442309F456C0FD01242F80E03F
:1015300090E03191830F911D8F3F910519F010F0CC
:101540008F5F91092150A9F74150242F30E02F5F80
:101550003F4FA20FB31F80958C93E0917002F091E2
:10156000710220812E5F822F869595E8899F812DBB
:10157000112482958F70922F3EE3839F901911243E
:1015800091118F5F9EE3899F902D1124921B85B747
:101590008F7785BF8FEF8ABB222361F031918FEF68
:1015A00002C0815011F08499FCCF3BBB9698969A6B
:1015B0002150A1F7992359F08FEF02C0815011F00B
:1015C0008499FCCF1BBA9698969A9150A9F71ABAAB
:1015D0008FEF8BBB08958FEFBFCF82B3806F82BB3D
:1015E00081B3806C81BB81B38F7C81BB109275020B
:1015F000E0916C02F0916D02108280916C029091EA
:101600006D0290937302809372021092740215BC63
:1016100080E486BF87B78F7387BF14BCE9E7F3E028
:10162000F0937102E093700287E792E090936D026D
:1016300080936C02F0937A04E093790490937C0495
:1016400080937B0481E0808381830E9434010C9429
:101650008D0A859948C085B78F7785BF1ABA979844
:1016600000000000000029B3979A8091740288233B
:1016700009F441C0E0917202F091730220838091DD
:10168000720290917302019690937302809372029A
:1016900040916E0250916F02BA01620F711D9B0161
:1016A0006F3F710519F010F02F5F310930936F0211
:1016B00020936E02E0916C02F0916D02208130E087
:1016C0002E5F3F4F8E1B9F0B99272817390709F470
:1016D00053C015BC14BC80E486BF87B78F7387BF27
:1016E00085E085BD089506B606FE04C080917402AB
:1016F000811130C0089510926F0210926E02222361
:1017000009F453C02F3F09F05FC0E0917002F091DF
:10171000710282E08083E0917002F0917102218376
:10172000E0917002F091710281E082830E948D0A43
:1017300080916C0290916D0290937302809372027B
:101740001092740215BC80E486BF87B78F7387BF81
:1017500014BC0895E0917002F091710282E08083E0
:10176000E0917002F09171028FEF8183E09170023D
:10177000F09171021282DACF80916E0290916F0225
:101780008F3F9105B9F1E0917002F091710282E012
:101790008083E0917002F09171029FEF9183E0915C
:1017A0007002F09171028283C1CF8FEF8093750236
:1017B000E0916C02F0916D0281E08083E0916C0217
:1017C000F0916D021182B4CFE0916C02F0916D0244
:1017D000F0937302E09372022083809172029091E1
:1017E0007302019690937302809372028FEF80933D
:1017F00074026FCF8FEF80937502F0937302E093C2
:1018000072029ECF85B7806885BF109201F385B7BD
:101810008F7785BF8091770390917803019790939C
:10182000780380937703089585B7806885BFE1E4E6
:10183000F3EF85EB80838083EFEFFFEF808380837E
:1018400085B78F7785BF81E487BB8FEF88BB98EF23
:1018500091BB91B392BB1ABA14BA109264008BBBBD
:1018600085BB8093650090E495BF9EE490936D00E6
:1018700090E890936C0012B81092610083B9809345
:10188000620060E00E94D9110E949C110E947A09B6
:101890000E94ED0A0E94C40D8FEF0C94BC1480913D
:1018A0007602813041F0823029F40E948D0A109234
:1018B0007502089508950E944509109266020895E0
:1018C00085B7806885BF81E0809301F385B78F7706
:1018D00085BF80E09AE09093780380937703E0914E
:1018E0007B04F0917C04E1818E2F90E0803791059C
:1018F00010F080E00895FC01EA5BFF4F0C9446462F
:101900000E9455080E944F0C8FEF08950E946218A4
:10191000F9CF0E946A22F6CF0E94CF22F3CF0E9415
:10192000A524F0CF0E949D23EDCF0E94D425EACFBD
:101930000E943921E7CF0E94AE1AE4CF0E9483268D
:10194000E1CF0E94F430DECF0E940808DBCF0E9476
:10195000EB07D8CF0E94D007D5CF0E94C607D2CFC1
:101960000E94A707CFCF0E949307CCCF0E94720797
:10197000C9CF0E948714C6CF0E941313C3CF0E9401
:10198000F612C0CF0E94EB12BDCF0E94E012BACF78
:101990000E944414B7CF0E94A013B4CF0E944513F5
:1019A000B1CF0E94CF11AECF0E94F311ABCF0E94F6
:1019B0008E11A8CF0E947D12A5CF0E94B812A2CF8F
:1019C0000E94C5119FCF0E94AD119CCF0E94E015CF
:1019D00099CF0E949F1596CF0E94CF1693CF0E9459
:1019E000AC1690CF0E946E158DCF0E94B1148ACF95
:1019F0000E94A11487CF0E94680784CF0E948D1196
:101A000081CF0E9478117ECF0E9477117BCF0E94F8
:101A1000000778CF0E94E50675CF0E948D0672CF31
:101A20000E9445066FCF0E941F066CCF0E946D1169
:101A300069CF0E943B1166CF0E94C70F63CF0E94FF
:101A4000920F60CF0E94F80F5DCF0E94A6055ACF7B
:101A50000E946B0557CF0E94340554CF0E94FF04AB
:101A600051CF0E94F3044ECF0E94C8044BCF0E9476
:101A7000340248CF0E94340145CF0E94280242CF51
:101A8000CF930E94BB090E94290B80916602882394
:101A9000D9F181E08093760280916702909168028B
:101AA00090937A048093790480916A0290916B02FA
:101AB00090937C0480937B0485B7806885BF91E018
:101AC000909301F385B78F7785BF20E03AE030939C
:101AD000780320937703E0917904F0917A0490835E
:101AE000E0917904F0917A04A0917B04B0917C0498
:101AF00011968C9181830E94600CC1E081112DC0F0
:101B0000C1958C2FCF910895C0917502CC23A1F07F
:101B100082E080937602809170029091710290939E
:101B20007A048093790480916C0290916D02909375
:101B30007C0480937B04C0CF8091770390917803DD
:101B40000097F9F28230910550F001979093780355
:101B5000809377038C2FCF910895C0E0D1CF0E945E
:101B6000020CCFCF8091770390917803009749F0D2
:101B70008230910538F00197909378038093770332
:101B8000089508950C94020C82E68093700081E021
:101B90008093710008958F929F92AF92BF92CF92DF
:101BA000DF92EF92FF92633D26E772078105910570
:101BB00008F448C0DC01CB0181382AE1920726E015
:101BC000A207B10508F095C0209171002C7F2093E9
:101BD00071006C017D01CC0CDD1CEE1CFF1CD701DB
:101BE000C601880F991FAA1FBB1F880F991FAA1F24
:101BF000BB1FBC01CD01660F771F881F991F0E9474
:101C0000FA449B01AC0160E074E284E79BE40E942B
:101C1000E7434B015C01C701B6010E94FA449B01F6
:101C2000AC01C501B4010E9459440E94CB446093A9
:101C30007000FF90EF90DF90CF90BF90AF909F909B
:101C40008F90089567362EE172078105910508F09F
:101C500055C0653A27E072078105910508F06BC011
:101C60006A3E21E072078105910508F497C0DC0106
:101C7000CB01880F991FAA1FBB1F880F991FAA1F8E
:101C8000BB1F6C017D01CC0CDD1CEE1CFF1CCC0CC1
:101C9000DD1CEE1CFF1CC701B6010E94FA449B012B
:101CA000AC0160E074E284E79BE40E94E7434B01EF
:101CB0005C01D701C601880F991FAA1FBB1F880F9F
:101CC000991FAA1FBB1FBC01CD01660F771F881F7C
:101CD000991F0E94FA449B01AC01C501B4010E9406
:101CE00059440E94CB4480917100836080937100BD
:101CF0009ECF80E89AE1A6E0B0E066CF2091710027
:101D00002D7F20937100209171002160209371003C
:101D1000DC01CB01880F991FAA1FBB1F880F991FD9
:101D2000AA1FBB1F6C017D01CC0CDD1CEE1CFF1C2F
:101D3000C701B60160CF209171002E7F2093710002
:101D400020917100226020937100DC01CB01880F8B
:101D5000991FAA1FBB1F880F991FAA1FBB1F6C01C9
:101D60007D01CC0CDD1CEE1CFF1CCC0CDD1CEE1C24
:101D7000FF1CC701B6010E94FA449B01AC0160E060
:101D800074E284E79BE40E94E7434B015C01C701D6
:101D9000B601660F771F881F991F3FCF6EEFA3CF45
:101DA00015BC14BC80E486BF87B78F7387BF85E0FE
:101DB00085BD84EA8093740003C006B606FC04C0A7
:101DC0008091740087FFF9CF15BC80E486BF8091B5
:101DD0007100887F08958093730015BC14BC80E463
:101DE00086BF87B78F7387BF85E085BD84EC8093FE
:101DF000740003C006B606FC04C08091740087FF1F
:101E0000F9CF15BC80E486BF80917100887F08956A
:101E100015BC14BC90E496BF97B79F7397BF95E02D
:101E200095BD8823C9F084EC8093740003C006B686
:101E300006FC04C08091740087FFF9CF8091740084
:101E400015BC90E496BF90917300FB019083809540
:101E5000881F8827881F089584E880937400EACF3C
:101E60000F931F93CF93DF93D82FC92F8B010E941D
:101E7000D00E877E39F080917100DF91CF911F9154
:101E80000F91089580EA0E94EB0E8831A1F78C2F04
:101E90000E94EB0E883279F78D2F0E94EB0E88326C
:101EA00051F70E94D00E877E31F781EA0E94EB0E37
:101EB000803409F7B80180E00E94080F8111DBCF60
:101EC00094E990937400D9CF1F93CF93DF93D82FC9
:101ED000C92F162F0E94D00E877E31F0809171009D
:101EE000DF91CF911F91089580EA0E94EB0E883117
:101EF000A9F78C2F0E94EB0E883281F78D2F0E945C
:101F0000EB0E883259F7812F0E94EB0E84E9809303
:101F100074008FE19EE40197F1F700C0000080910A
:101F20007100DECFEF92FF920F931F93CF93DF9359
:101F3000E0917B04F0917C049381848105810023EE
:101F4000F9F0015010E00D5F1F4FE92EF82EC2E0AE
:101F5000D0E06091790470917A046C0F7D1FC70105
:101F60000E94300FE0917904F0917A0480818F5FB4
:101F7000808321968FEFE81AF80AC017D10749F736
:101F8000DF91CF911F910F91FF90EF900895EF9205
:101F9000FF920F931F93CF93DF93E0917B04F09117
:101FA0007C042381948180818430D9F08550E82E8F
:101FB000F12C86E0E80EF11C022F192FC5E0D0E0CD
:101FC00004C0E0917B04F0917C04EC0FFD1F608164
:101FD000C8010E94640F21960F5F1F4FCE15DF05C9
:101FE00081F7DF91CF911F910F91FF90EF900895AE
:101FF000AF92BF92CF92DF92EF92FF921F93CF9357
:10200000DF93E0917B04F0917C04D081D1507F017B
:1020100082E0E80EF11CC0907904D0907A0492E03E
:10202000C90ED11CC0E010E0D1111BC0CC2309F4B3
:102030005BC0C150173509F44CC05601C11121C015
:10204000FFEFAF1ABF0AB60180E00E94080F6501DA
:10205000E0917904F0917A0480818F5F8083DD23A1
:1020600029F3C111E6CFF70110818FEF8D0F1735DE
:1020700089F01235F1F0FFEFEF1AFF0A10E0D82FC8
:10208000D3CF8FEFA81AB80AB60181E00E94080FDB
:102090006501DECF882341F15701F2E0AF0EB11C9C
:1020A000F701C181D250DC17F8F00E94D00E750103
:1020B000BBCF8230C8F00E94D00EF70181818160D1
:1020C0000E94EB0EF701C281D350C70103967C0139
:1020D000ABCF57019FEFA91AB90AD150F701808100
:1020E0000E94EB0E7501A0CF84E980937400DF910C
:1020F000CF911F91FF90EF90DF90CF90BF90AF9066
:1021000008952F923F924F925F926F927F928F929B
:102110009F92AF92BF92CF92DF92EF92FF920F9376
:102120001F93CF93DF9300D000D000D0CDB7DEB7A0
:10213000462EF42ED52E222E3E2C880F8983611137
:1021400066C0812C912C5401222309F446C00E94C0
:10215000D00E898181600E94EB0E883409F482C020
:10216000422C512C612C712C822D90E001979C0106
:10217000990F440B550B29833A834B835C830F5F84
:102180001F4FC12CD12C760110C081E00E94080F96
:10219000882A9FEFC91AD90AE90AF90A0F5F1F4F67
:1021A000C414D504E604F70498F4B8016150710929
:1021B00089819A81AB81BC818C159D05AE05BF05D7
:1021C00021F780E00E94080F882AE3CF2110BFCFBB
:1021D000332019F084E980937400882D26960FB679
:1021E000F894DEBF0FBECDBFDF91CF911F910F914D
:1021F000FF90EF90DF90CF90BF90AF909F908F9027
:102200007F906F905F904F903F902F9008950E9425
:10221000D00E89810E94EB0E41E0803209F040E04F
:10222000842E512C612C712CFD82DE82C12CD12C8C
:1022300076010AC0BFEFCB1ADB0AEB0AFB0AC41413
:10224000D504E604F70410F6AD81BE818D91BE83FE
:10225000AD830E94EB0E803369F7812C912C5401E1
:102260008394E8CF422C512C612C712C812C912C21
:102270005401839479CFCF92DF92EF920F931F9303
:10228000CF93E0917B04F0917C0460816350DF0187
:10229000A60FB11D1396CC91C0907904D0907A040A
:1022A00086010D5F1F4FAF014D5F5F4FEE24E3943A
:1022B0002C2F82810E948110F6018283E0917904A3
:1022C000F0917A0480818F5FC80FC083CF911F91F6
:1022D0000F91EF90DF90CF900895E0917B04F09103
:1022E0007C0462817381848195810C94CB0D089567
:1022F000E0917B04F0917C049F012E5F3F4F808131
:1023000040E05FEF63E081500E94B706E0917904FE
:10231000F0917A0484E1808308950895E0917B042C
:10232000F0917C049F012D5F3F4F808140E05FEF83
:1023300063E082500C94B70616B818B880B5886070
:1023400080BD089595B7906895BFE0E0F1EF808378
:10235000808385B78F7785BF0895E0917B04F091E6
:102360007C0482812381348195B7906895BF877002
:102370008062809300F2309301F2209302F2209366
:1023800003F285B78F7785BF0895E0917B04F091C4
:102390007C0482818111089583810C94A211E091C3
:1023A0007904F0917A0480917D04828382E08083B5
:1023B0000895282F262390917D04922B8095682BD9
:1023C00069236F7060937D0485B7806885BF8091B5
:1023D0007D04E0E0F3EF808380917D04808385B706
:1023E0008F7785BF0895E0917B04F0917C04638131
:1023F00082810C94D91125B7206825BF677060626F
:10240000609300F2909301F2809302F2809303F2C2
:1024100085B78F7785BF0895611102C00C94A21112
:102420000895CF92DF92EF92FF920F931F93CF9375
:10243000DF93CDB7DEB728970FB6F894DEBF0FBE97
:10244000CDBF6B017C01042F0770000F000F000F40
:1024500010E0185FB8016C5F7F4FE199FECF44E058
:1024600050E0CE0105960E9475462D813E814F8138
:102470005885C701B6010E94E7436B017C01E199D1
:10248000FECF44E050E0B801CE0101960E947546AF
:1024900029813A814B815C81C701B6010E94594470
:1024A0006B017C0120E030E0A9010E94544487FDCB
:1024B0001BC020E030E040E857E4C701B6010E94AD
:1024C000AC451816A4F48FEF9FEF28960FB6F8943A
:1024D000DEBF0FBECDBFDF91CF911F910F91FF9057
:1024E000EF90DF90CF90089580E090E0EECFC701AD
:1024F000B6010E94CB44CB01E8CFCF93DF93E091AC
:102500007B04F0917C04D381C281C430A8F4D03123
:1025100098F464817581868197814C2F0E941112F5
:1025200020E1C29FF0011124ED0FF11DEE0FFF1FFE
:10253000E258FB4F91838083DF91CF910895CF9331
:10254000C82FCB01BA014C2F0E94111225B7206869
:1025500025BFC770C062C09300F2909301F28093D0
:1025600002F2809303F285B78F7785BFCF910895EC
:10257000E0917B04F0917C044381548165817681F4
:1025800082810C949F12CF93DF93E82FF62F843033
:10259000A0F4603190F4CA01B901EF014C2F0E9400
:1025A000111220E1C29FF0011124ED0FF11DEE0F79
:1025B000FF1FE258FB4F91838083DF91CF910895F5
:1025C000E0917B04F0917C048281938190930105DA
:1025D000809300050895E0917B04F0917C04828152
:1025E000938190930305809302050895E0917B0405
:1025F000F0917C04828193819093FF048093FE0488
:10260000089595B7906895BF84FD0BC0C09A8F70F0
:10261000809300F085B78F7785BF8FE090E00C94B2
:102620002007C098F4CFE0917B04F0917C04828174
:102630000C9401131F93CF93DF9300D0CDB7DEB777
:10264000182F85B7806885BF8EE190E00E94200733
:10265000109310F083E090E00E942007E1E1F0EF9A
:102660008081898380818983E2E1F0EF80818A83A0
:1026700080818A8385B78F7785BF89819A810F9002
:102680000F90DF91CF911F910895CF93DF93E09149
:102690007B04F0917C0482810E940113C091790433
:1026A000D0917A04E0917B04F0917C0482810E94B5
:1026B0001A139B838A83E0917904F0917A0483E072
:1026C0008083DF91CF910895CF92DF92EF92FF92B6
:1026D0001F93CF93DF93C091FE04D091FF04209706
:1026E00061F460E070E080E090E0DF91CF911F91B5
:1026F000FF90EF90DF90CF900895182F8091000504
:10270000909101050E942007C12CD12C7601812FC8
:102710000E941A13C80ED91EE11CF11C80910205FB
:10272000909103050E942007219789F7B601C70100
:10273000DF91CF911F91FF90EF90DF90CF900895A0
:10274000CF93DF93E0917B04F0917C0482810E941F
:102750000113C0917904D0917A04E0917B04F09147
:102760007C0482810E9464136A837B838C839D83B3
:10277000E0917904F0917A048091FE049091FF0435
:102780009783868387E08083DF91CF910895CF92EE
:10279000DF92EF92FF920F931F93CF93DF93CDB70A
:1027A000DEB728970FB6F894DEBF0FBECDBF042F5B
:1027B0000E94FA446B017C016091FE047091FF0459
:1027C0006115710561F080E090E00E94FA449B0180
:1027D000AC01C701B6010E9459446B017C01000F96
:1027E000000F000F10E0005C174FE199FECF44E0AE
:1027F00050E0B801CE0101960E94754629813A81C8
:102800004B815C81C701B6010E94B1456B017C011F
:10281000B8016C5F7F4FE199FECF44E050E0CE01FC
:1028200005960E9475462D813E814F815885C701CE
:10283000B6010E94E84328960FB6F894DEBF0FBE9B
:10284000CDBFDF91CF911F910F91FF90EF90DF905F
:10285000CF900895CF93C82FE82FEF718E2F90E07F
:10286000FC017097E031F10520F4EA54FF4F0C941D
:102870004646CF708C2F0E9401138C2F0E94641348
:102880004C2FCF910C94C713CF93DF93C091790451
:10289000D0917A04E0917B04F0917C0482810E94C3
:1028A0002A146A837B838C839D83E0917904F09161
:1028B0007A0485E08083DF91CF910895CF92DF92F3
:1028C000EF92FF92CF93DF93C82FD82FDE7F8D2F0B
:1028D0000E9401138D2F0E9464134C2F40610E94AF
:1028E000C7136B017C018C2F0E9401138C2F0E9457
:1028F00064134C2F0E94C713A70196010E94E7435F
:10290000DF91CF91FF90EF90DF90CF900895CF931C
:10291000DF93C0917904D0917A04E0917B04F09127
:102920007C0482810E945E146A837B838C839D83F6
:10293000E0917904F0917A0485E08083DF91CF9172
:102940000895E0917B04F0917C0483819481E2817D
:10295000EF71F0E0EE0FFF1FE35EFD4F9183808388
:102960000895E0917B04F0917C048281811101C083
:1029700081E0809308050895811101C081E0809372
:1029800008050895F8941092230510921A051092E4
:102990001D058093100510921F05109220051092BE
:1029A000210510922205109204051092050510923F
:1029B00006051092070580911C0580930F05109263
:1029C000190510927D0010928B0080918A00807210
:1029D00080938A0080918C008F7180938C0010927C
:1029E00089001092880080917C00846080937C0034
:1029F00080918A00816080938A0010920A0510926B
:102A00006A0080911E05837080931E0590E18823E3
:102A100019F0990F8150E9F789B78F70982B99BFFA
:102A200080911B05811106C08AEA8ABF8FEF88BF9B
:102A3000789408958FEF8ABF8FEF88BF78940895B8
:102A400010920A05809119058F5F80930905809186
:102A50007C0082FF0EC08FEF80930A0580917C007E
:102A6000846080937C008091090580931905109201
:102A70000A05089560931B0540931C0580931E056D
:102A8000822F0E94C21408C00E942015909119053F
:102A900080910805981780F480911D058823A1F383
:102AA00080E0F89499B79F7099BF90918A009072D6
:102AB00090938A007894089510921F051092200533
:102AC000109221051092220510920405109205051E
:102AD000109206051092070581E0E3CF8091000572
:102AE000909101050E942007E0917B04F0917C0405
:102AF00020E041E0638182810E943A15E0917904EF
:102B0000F0917A0487E08083E0917904F0917A046F
:102B1000A4E0B5E08C91828311968C911197838308
:102B200012968C918483AFE1B5E08C9185831196E8
:102B30008C911197868312968C91878308950F93B9
:102B40001F93CF93DF9380910005909101050E9420
:102B500020070091790410917A04E0917B04F091B0
:102B60007C04CEEFD4E020E04881638182810E9422
:102B70003A158091040590910505A0910605B09144
:102B80000705F80182839383A483B58380911F0591
:102B900090912005A0912105B0912205868397830D
:102BA000A087B187E0917904F0917A0488818287C7
:102BB00013868BE08083DF91CF911F910F91089551
:102BC000CF92DF92EF92FF920F931F93CF93DF93F9
:102BD00080910005909101050E94200700917904E1
:102BE00010917A04E0917B04F0917C0421E0409103
:102BF000FE04638182810E943A1560911F057091E5
:102C000020058091210590912205C091FE04D0916C
:102C1000FF040E94FA446B017C01BE0180E090E059
:102C20000E94FA4420E030E040E851E40E94B145BF
:102C30009B01AC01C701B6010E945944F8016283AF
:102C4000738384839583E0917904F0917A04C68339
:102C5000178285E08083DF91CF911F910F91FF90C4
:102C6000EF90DF90CF90089580917C0082FD13C09B
:102C700080910A05811108C0000000000000109238
:102C80000A05000000000895809109058093190548
:102C900000000000089580917C00846080937C0097
:102CA000809119058F5F8093190508954F925F9267
:102CB0006F927F928F929F92AF92BF92EF92FF920C
:102CC0000F931F93CF93C42F790120E00E943A15F0
:102CD0008090040590900505A0900605B09007052A
:102CE0006C2F70E080E090E00E94FA4420E030E039
:102CF00040E851E40E94B1452B013C01C501B401FB
:102D00000E94FA44A30192010E945944F701608392
:102D100071838283938360911F0570912005809158
:102D20002105909122050E94FA44A30192010E947C
:102D30005944F8016083718382839383CF911F91FB
:102D40000F91FF90EF90BF90AF909F908F907F90EA
:102D50006F905F904F9008950F931F93809100059F
:102D6000909101050E9420072091790430917A0406
:102D7000E0917B04F0917C0489010A5F1F4F2E5F74
:102D80003F4F41E0638182810E945616E0917904B1
:102D9000F0917A0489E080831F910F9108950F9339
:102DA0001F93CF93DF9380910005909101050E94BE
:102DB00020072091790430917A04E0917B04F0910E
:102DC0007C0489010A5F1F4F2E5F3F4FCEEFD4E096
:102DD0004881638182810E945616E0917904F091C6
:102DE0007A048881828713868BE08083DF91CF917C
:102DF0001F910F910895CF92DF92EF92FF920F9360
:102E00001F9380918A008E7F80938A000E943416DF
:102E10008091880080930B058091890080930C0538
:102E20008091190580930D0580918A0081608093BF
:102E30008A0080911005882309F44DC080911A05FD
:102E4000882309F4F0C000910B0510910C05209126
:102E50000D0530910E0540911105509112056091BC
:102E600013057091140580911F0590912005A09184
:102E70002105B0912205800F911FA21FB31F8896D4
:102E8000A11DB11D841B950BA60BB70B80931F05CD
:102E900090932005A0932105B093220580910B0506
:102EA00090910C05A0910D05B0910E058093110530
:102EB00090931205A0931305B093140591E090939D
:102EC0001A0580910F05815080930F058111A4C0D0
:102ED00090931D0582C08AB78F3F09F4BEC08FEF63
:102EE0008ABF21E020931A0580912305882309F4E5
:102EF00083C080911B058111CEC0C0900B05D0907E
:102F00000C05E0900D05F0900E05409115055091CF
:102F10001605609117057091180580910405909130
:102F20000505A0910605B09107058C0D9D1DAE1DF0
:102F3000BF1D8896A11DB11D841B950BA60BB70B59
:102F40008093040590930505A0930605B0930705AB
:102F5000C0900B05D0900C05E0900D05F0900E058B
:102F6000409111055091120560911305709114055F
:102F700080911F0590912005A0912105B091220517
:102F80008C0D9D1DAE1DBF1D805B9F4FAF4FBF4F72
:102F9000841B950BA60BB70B80931F059093200500
:102FA000A0932105B093220580910B0590910C050B
:102FB000A0910D05B0910E05809311059093120517
:102FC000A0931305B093140580910F058150809351
:102FD0000F05811121C020931D0589B78F7089BF0E
:102FE00080918A00807280938A001F910F91FF90D8
:102FF000EF90DF90CF90089580910B0590910C0594
:10300000A0910D05B0910E058093110590931205C6
:10301000A0931305B09314051F910F91FF90EF90AB
:10302000DF90CF90089580910B0590910C05A091B1
:103030000D05B0910E058093110590931205A09394
:103040001305B093140581E080931A051F910F9129
:10305000FF90EF90DF90CF9008958AEA8ABF21E039
:103060002093230580911A05882331F280911B0556
:10307000882389F0C0901505D0901605E0901705BB
:10308000F0901805409111055091120560911305BB
:103090007091140542CF80910B0590910C05A09181
:1030A0000D05B0910E058093150590931605A0931C
:1030B0001705B09318051F910F91FF90EF90DF90C7
:1030C000CF900895E0917B04F0917C0482818093FD
:1030D0002605938190932705813009F44EC008F4AA
:1030E0003FC0823041F18091620081608093620034
:1030F000809161008E7F8093610010922405109270
:10310000250580918A00887F80938A0080917D00C8
:10311000817C80937D0010928B0010928A00109227
:103120008C00109289001092880080917C0084604D
:1031300080937C000895809162008160809362009A
:10314000809162008D7F80936200809161008E7F0C
:103150008093610080916100826080936100CDCF97
:1031600080916200836080936200809161008C7F17
:103170008093610010922605C0CF80916200836029
:1031800080936200809161008160809361008091F2
:1031900061008D7F80936100B0CF90917C00892F7A
:1031A000847092FF0FC080917C00846080937C00CB
:1031B0008091250590912705891729F08F5F8093CD
:1031C000250580E008958091240581608093240581
:1031D00080918A00887F80938A0081E008958091A1
:1031E0002605813011F18230F1F48091240581FDB2
:1031F0001AC080918A00826080938A00109225050F
:1032000002C0009B37C00E94CD188091240580FF2A
:10321000F8CF8091610082608093610080918A0084
:10322000887F80938A0080E008958091240581FD45
:10323000FACF809162008E7F8093620080918A0035
:10324000826080938A001092250502C0019921C0F6
:103250000E94CD188091240580FFF8CF80916200F4
:1032600081608093620080918A00887F80938A00C9
:1032700080E00895809161008D7F8093610002C09D
:103280000099C7CF0E94CD188091240580FFF8CF08
:10329000C0CF8091620081608093620002C0019B78
:1032A000DDCF0E94CD188091240580FFF8CFD6CFC6
:1032B00082B1826382B982B1877B82B983B1877818
:1032C00083B9199A08958F929F92AF92BF92CF922D
:1032D000DF92EF92FF920F931F93CF93DF934B01F7
:1032E000D82FC92F5A01690120E030E0A9010E94BE
:1032F0005444882309F440C0C401AD2FBC2F8093EF
:10330000280590932905A0932A05B0932B0520E06A
:1033100034E244E759E4B4018D2F9C2F0E945944B4
:103320002DEB37E346E055E30E9459440E94CB441D
:1033300070933E0560933D05B0923205A092310531
:10334000D0923405C09233051093360500933505AD
:10335000F0923805E0923705B4018D2F9C2FDF9154
:10336000CF911F910F91FF90EF90DF90CF90BF9082
:10337000AF909F908F900895B4018D2F9C2F0E9445
:10338000CB4470933E0560933D0580E090E0A0E85B
:10339000BFE38093280590932905A0932A05B09355
:1033A0002B05812C912CD0E8CFE3C6CF8F929F9232
:1033B000AF92BF92CF92DF92EF92FF920F93CF9393
:1033C0006B017C01CA01B90120E030E04CEC51E412
:1033D0000E94B14520E030E040E05FE30E94E84316
:1033E0004B015C0120E030E04FE753E40E94AC4524
:1033F00018160CF45FC0C501B4010E94CB44C62F5F
:1034000080E090E0A0E2B1E48093390590933A0522
:10341000A0933B05B0933C0560E080E00E940C1255
:1034200084E690E00E9420074091390550913A05CA
:1034300060913B0570913C0583E00E949F1280EDF6
:1034400097E00E94200760E080E00E940C1280ED6F
:1034500097E00E94200760E08C2F0E940C12C0921F
:103460004505D0924605E0924705F09248058091C7
:103470004101B701A601823029F181E00E949F122B
:103480000130B9F1C8F0023049F1033029F48091DC
:103490001C0284640E94850788EE93E0CF910F910F
:1034A000FF90EF90DF90CF90BF90AF909F908F9064
:1034B0000C942007CFEFA4CF80911C028B7B0E943D
:1034C0008507EACFCF910F91FF90EF90DF90CF90DB
:1034D000BF90AF909F908F900C949F1280911C0290
:1034E00080640E94850780911C028B7F0E94850763
:1034F000D3CF80911C0284600E94850780911C02BA
:103500008F7B0E948507C8CF90914101913009F0CF
:1035100008958130F9F080F08430D0F780911C025A
:10352000867F0E94850780911C0282600E94850729
:1035300088EE93E00C94200780911C0289600E9421
:10354000850780911C028D7F0E94850788EE93E09D
:103550000C94200780911C028160F1CF4F925F9202
:103560006F927F928F929F92AF92BF92CF92DF9293
:10357000EF92FF920F931F93CF93DF9382E080939C
:103580005D01C0917B04D0917C048A8180934905C0
:1035900082B1826382B982B1877B82B983B1877835
:1035A00083B9199A2F81388549855A856B817C8129
:1035B0008D819E810B850E94D6190E891F89EC880A
:1035C000FD88CA88DB88A888B9884C845D846E84AD
:1035D0007F8420E030E0A901C301B2010E9454447D
:1035E0008111BEC0C301B2010E94CB4470933E055D
:1035F00060933D0580E090E0A0E8BFE3809328055C
:1036000090932905A0932A05B0932B05412C512CAA
:1036100080E8682E8FE3782EB0923205A0923105B3
:10362000D0923405C0923305F0923605E09235050C
:103630001093380500933705809149050E94841A3C
:10364000E0917B04F0917C048081883108F45DC0B6
:10365000188D109330058D8C9E8CAF8CB8A02AE904
:1036600039E949ED5FE36091280570912905809162
:103670002A0590912B050E94E8436B017C01698D1E
:103680007A8D8B8D9C8D0E94FA44A70196010E9431
:1036900059440E94CB446093410570934205809346
:1036A000430590934405C501B4010E94FA44A70163
:1036B00096010E9459440E94CB4460932C0570935C
:1036C0002D0580932E0590932F0513FF02C017FD43
:1036D00064C0E0917904F0917A044282538264825A
:1036E000758280818C5F8083DF91CF911F910F91D4
:1036F000FF90EF90DF90CF90BF90AF909F908F9012
:103700007F906F905F904F900895109230052AE956
:1037100039E949ED5FE360912805709129058091B1
:103720002A0590912B050E94E8439B01AC0160E0C3
:1037300070E68AE696E40E9459440E94CB44609366
:10374000410570934205809343059093440560932F
:103750002C0570932D0580932E0590932F05B9CFDE
:10376000409228055092290560922A0570922B05F7
:1037700020E034E244E759E4C301B2010E94594415
:103780002DEB37E346E055E30E9459440E94CB44B9
:1037900070933E0560933D053FCF8091610081604D
:1037A00080936100809162008E7F8093620091CF50
:1037B0000F931F93CF93DF93C82F00913D05109176
:1037C0003E0501151105C9F1D8E018C01C9A809179
:1037D00049058450823008F445C0C8010197F1F7CB
:1037E00083B18F7C83B98091490584508230E8F0A1
:1037F000CC0FC8010197F1F7D15091F0C7FFE6CF88
:1038000083B1806383B9809149058450823028F761
:1038100060E080918A0490918B040E94FB11DDCFBF
:10382000DF91CF911F910F91089560E08091860400
:10383000909187040E94FB11DBCF98E021E030E0FB
:103840000BC01C9AF9013197F1F7000083B18F7C0E
:1038500083B9CC0F915021F3C7FFF3CF83B18063BD
:1038600083B9F0CF60E080918804909189040E9430
:10387000FB11B3CFFF920F931F93CF93DF93009170
:103880003D0510913E0528E030E0281B3109C62F88
:1038900001C0CC0F2A95EAF701151105B9F4882368
:1038A000B9F020E041E050E00BC01C9AFA013197DA
:1038B000F1F793B19F7C93B9CC0F2F5F821741F042
:1038C000C7FFF3CF93B1906393B9F0CF811106C0D6
:1038D000DF91CF911F910F91FF900895F82ED0E0C6
:1038E00018C01C9A909149059450923060F1F801EB
:1038F0003197F1F793B19F7C93B99091490594501A
:103900009230C8F0CC0FF8013197F1F7DF5FFD1668
:10391000F9F2C7FFE6CF83B1806383B9809149058F
:103920008450823020F760E080918A0490918B046B
:103930000E94FB11DCCF60E08091860490918704A7
:103940000E94FB11DFCF60E0809188049091890490
:103950000E94FB11CCCFFF920F931F93CF93DF9365
:1039600080914905882311F1853001F1D0E400915F
:103970003D0510913E050115110501F598E0C0E0E7
:10398000CC0F83B1806383B9000081B18D2309F02E
:10399000C16083B18F7C83B90000915089F78C2F6F
:1039A000DF91CF911F910F91FF900895D8E0009182
:1039B0003D0510913E050115110501F388E0F82E33
:1039C000C0E0CC0F83B1806383B9809149059CEF3F
:1039D000980F923018F1F8013197F1F7843091F097
:1039E00081B18D2389F483B18F7C83B9809149059E
:1039F0008450823058F0C8010197F1F7FA94F11021
:103A0000E0CFCDCF459BEFCFC160EDCF60E080919F
:103A10008604909187040E94FB11EDCF60E08091B5
:103A20008A0490918B040E94FB1180914905D3CFA9
:103A300080914905882349F0853039F0843069F454
:103A400088B185FB882780F9089588E091B1982393
:103A500081E009F0089580E0089580E4F7CFEF92C7
:103A6000FF920F931F93CF93DF9390914905992372
:103A700009F43EC0953009F43BC0D0E400913D0507
:103A800010913E050115110509F43AC0882309F487
:103A900068C0E82EC0E0F12CCC0F93B1906393B9CD
:103AA000909149058CEF890F823008F448C0F801E5
:103AB0003197F1F7943009F43EC091B19D2309F09C
:103AC0003CC093B19F7C93B990914905945092303A
:103AD00008F43FC0F8013197F1F7F394EF10DCCF11
:103AE0008C2FDF91CF911F910F91FF90EF90089550
:103AF000D8E000913D0510913E050115110531F604
:103B0000C0E0882369F320E0CC0F93B1906393B9B0
:103B1000000091B19D2309F0C16093B19F7C93B9DE
:103B20002F5F8213F1CF8C2FDF91CF911F910F91D7
:103B3000FF90EF900895459BC4CFC160C2CF60E075
:103B400080918A0490918B040E94FB119091490509
:103B5000AECF60E080918604909187040E94FB11B3
:103B6000B9CFC0E0BDCFEF92FF920F931F93CF93D9
:103B7000DF93D82F809149058823F9F08530E9F04B
:103B800000E4E0903D05F0903E05E114F104E9F415
:103B900098E0C0E00BC01C9A81B1802309F0C1609D
:103BA00083B18F7C83B9DD0F915091F1CC0FD7FF9A
:103BB000F2CF83B1806383B9EFCF08E0E0903D0599
:103BC000F0903E05E114F10419F318E0C0E0CC0FC9
:103BD000D7FD2AC01C9A809149059CEF980F92301E
:103BE00008F43DC0F7013197F1F78430C9F081B195
:103BF0008023C1F483B18F7C83B9809149058450BF
:103C0000823028F1DD0FC7010197F1F71150F9F665
:103C10008C2FDF91CF911F910F91FF90EF9008951E
:103C2000459BE8CFC160E6CF83B1806383B98091C3
:103C300049059CEF980F9230A8F660E080918A04C5
:103C400090918B040E94FB1180914905CBCF60E0DD
:103C500080918604909187040E94FB11D3CF60E08D
:103C600080918804909189040E94FB1180914905FC
:103C7000B9CFDF92EF92FF920F931F93CF93DF9311
:103C800090914905992321F0953011F000E401C08D
:103C900008E0E0903D05F0903E0528E030E0281B6C
:103CA0003109C62F01C0CC0F2A95EAF7E114F104BF
:103CB000C1F4D0E08823C1F020E00CC01C9A91B17F
:103CC000902309F0D16093B19F7C93B9CC0F2F5F03
:103CD000821751F0DD0FC7FFF1CF93B1906393B915
:103CE000EECF81110AC0D0E08D2FDF91CF911F91CF
:103CF0000F91FF90EF90DF900895D82ED0E010E064
:103D0000DD0FC7FD22C01C9A909149058CEF890FE9
:103D1000823008F43DC0F7013197F1F7943061F13A
:103D200091B1902359F593B19F7C93B99091490536
:103D30009450923028F1CC0FF7013197F1F71F5FC3
:103D4000D11691F2DD0FC7FFDECF83B1806383B957
:103D5000909149058CEF890F8230E8F660E0809100
:103D60008A0490918B040E94FB1190914905F70100
:103D70003197F1F79430A1F6459BD5CFD160D3CFE1
:103D800060E080918604909187040E94FB11D3CF5C
:103D900060E080918804909189040E94FB119091C9
:103DA0004905B9CFCF92DF92EF92FF920F931F9305
:103DB000CF93DF93EA017C01F694E794F694E794BD
:103DC000F694E7949C0127703327232BC1F4E11468
:103DD000F10461F08B01EC0EFD1EF80181918F0161
:103DE0000E94B31D8993CE15DF05B9F7DF91CF91FE
:103DF0001F910F91FF90EF90DF90CF9008956A018F
:103E00002FEFC21AD20A8B010F5F1F4FFB01608197
:103E10009E2D990F990F990F891B0E94391E888337
:103E2000E601B801D4CF0F931F93CF93DF93082FF0
:103E3000069506950695982F9770A1F4002369F0D2
:103E4000EB01015010E00F5F1F4F060F171F899104
:103E50000E94D81BC017D107D1F7DF91CF911F91D6
:103E60000F910895EB012196FB016081902F990F2E
:103E7000990F990F891B0E943A1CBE01DFCFCF9387
:103E8000DF93C0913D05D0913E0583B1806383B936
:103E90008091490584508230E0F0CE010197F1F71E
:103EA00083B18F7C83B9809149058450823028F09A
:103EB0002197F1F7DF91CF91089560E0809186041A
:103EC000909187040E94FB112197F1F7DF91CF9128
:103ED000089560E080918A0490918B040E94FB1108
:103EE000DCCF8F929F92AF92BF92CF92DF92EF92F0
:103EF000FF926A017B0120913D0530913E05909132
:103F00004905992309F43FC0953009F43CC090E479
:103F1000232B09F03CC0813009F480C0823009F0C5
:103F200058C0C114D104E104F10439F183B18063B4
:103F300083B981E08A95F1F783B18F7C83B981B130
:103F4000892309F440C040E050E0BA0121E00CC0F0
:103F500083B1806383B9822F8A95F1F783B18F7C17
:103F600083B981B1892379F14F5F5F4F6F4F7F4FE5
:103F7000C416D506E606F70659F760E081E00E9410
:103F80003A1C82E027C098E0232B09F4C4CF81308B
:103F900051F18230F1F4C114D104E104F10469F368
:103FA000812C912C54010AC08FEF881A980AA80A14
:103FB000B80AC814D904EA04FB04F9F281E00E94AB
:103FC0002F1D8111F1CF60E081E00E943A1C80E05A
:103FD00001C080E0FF90EF90DF90CF90BF90AF9056
:103FE0009F908F90089581E0C81AD108E108F108E8
:103FF00051F3812C912C54010E943F1F8FEF881A9E
:10400000980AA80AB80A8C149D04AE04BF04A0F351
:1040100060E081E00E943A1C80E0DCCF81E0C81AB9
:10402000D108E108F10879F240E050E0BA0191E0EE
:1040300083B1806383B9892F8A95F1F783B18F7C2F
:1040400083B94F5F5F4F6F4F7F4F4C155D056E0516
:104050007F0570F360E081E00E943A1C80E0BACFF7
:10406000982F907611F485E00895903299F0282FDA
:104070002E772C3789F0282F2C76203689F024369D
:1040800069F0903479F08F778F3771F08E3771F057
:1040900088E0089586E0089587E0089583E0089514
:1040A00082E0089584E0089580E0089581E0089515
:1040B000FC01208121FD37C080E0982F96952827AC
:1040C00020FD2FC080E08927318128E005C080E0F5
:1040D0008427330F215071F0482F46958170932F1C
:1040E000991F9927991F891791F389E08427330F26
:1040F000215091F7328128E005C080E08427330FFA
:10410000215071F0482F46958170932F991F992760
:10411000991F891791F389E08427330F215091F774
:10412000089589E0D0CF89E0C8CFEF92FF921F9326
:10413000CF93DF93EC017B0168816460688383E047
:104140000E943A1C89810E94D81B8A810E94D81B38
:1041500084E00E942F1D182FCE010E945820982F16
:10416000E114F10411F0F701108381E0191731F027
:10417000DF91CF911F91FF90EF90089580E0DF9144
:10418000CF911F91FF90EF9008959091300592FF8D
:1041900004C0813019F08230E9F008958091410126
:1041A0008130A1F18230C9F70E94EF1860E0809160
:1041B0008004909181040E94FB1161E08091A00431
:1041C0009091A1040E94FB1180913D0290913E02CA
:1041D0000C94200780914101813029F18230E9F669
:1041E0000E94EF1860E080918204909183040E9405
:1041F000FB1161E08091A2049091A3040E94FB1145
:1042000080913B0290913C020C94200760E08091E9
:104210008004909181040E94FB1180913D02909155
:104220003E020C94200760E0809182049091830408
:104230000E94FB1180913B0290913C020C9420075C
:10424000CF93DF93D4E680E002C0D15071F0C82F45
:10425000CC0F81E00E942F1D8C2B982F9F709430E3
:10426000A1F780E0DF91CF91089584E0DF91CF91B5
:1042700008950F931F93CF93DF9382E00E94C52090
:104280008091300586FD40C000917B0410917C0434
:10429000C0917904D0917A0460E070E0C80103967F
:1042A0000E9495208A83F801C681D78140917904C4
:1042B00050917A044D5F5F4FB801685F7F4FCE0128
:1042C0000E94D21EE0917904F0917A04808121E06D
:1042D000280FCE0196958795969587959695879503
:1042E000820F8083C770DD27CD2B39F0E0917904F0
:1042F000F0917A0480818F5F808381E0DF91CF919C
:104300001F910F910C94C5200E942021BDCFCF9307
:10431000DF93C82FD62F813019F161E082E00E942F
:104320003A1CC11121C08091300583708130D1F1D8
:10433000D1112FC040914105509142056091430534
:104340007091440582E00E94711FC82F8091300552
:1043500083FF02C0C1110CC08C2FDF91CF91089553
:1043600062E082E00E943A1C8091300583FFF4CF26
:1043700087FD30C00E942021C82B8091300583FF2B
:10438000EBCF87FFE9CF809162008E7F8093620040
:10439000E3CF40912C0550912D0560912E05709131
:1043A0002F05D0CFDD2369F040912C0550912D05CC
:1043B00060912E0570912F0581E00E94711FC82F1A
:1043C000C5CF4091410550914205609143057091E0
:1043D0004405F2CF80916200816080936200CACF71
:1043E000FF920F931F93CF93DF9300D01F92CDB70F
:1043F000DEB7F62E1982FC0120812A8381818B830E
:104400008091300583FF2BC060E070E0CE01019603
:104410000E949520182F6F2D0E948721812B02E08A
:104420000DC060E070E0CE0101960E949520182F2B
:104430006F2D0E948721812B015011F08111F1CF46
:10444000909130059370923009F48D7F0F900F900A
:104450000F90DF91CF911F910F91FF90089560E031
:1044600070E0CE0101960E949520182F6F2D0E94BA
:104470008721812BE5CFEF92FF920F931F93CF936C
:10448000DF9300D0CDB7DEB7F82E8A01FB01808123
:104490008370982F90658F2D8370880F880F892BDC
:1044A000898381818A8360E0CE0101960E94F02198
:1044B000E82E61E0F2E0FF1260E0C8010E94F02106
:1044C0008E290F900F90DF91CF911F910F91FF9048
:1044D000EF900895FF920F931F93CF93DF93E09196
:1044E0007B04F0917C0400810250E0917904F0910A
:1044F0007A0480818D5F8083E0917904F0917A0461
:1045000014821382802F837041F08FEF8283DF91BA
:10451000CF911F910F91FF900895C0917B04D0918E
:104520007C04FA800695069582E00E94C520809161
:10453000300586FD2BC0002361F1239610E08F2DFE
:104540008370F82E04C024961F5F0117D1F0AE01CE
:104550004E5F5F4FBE018F2D0E943B22882399F34F
:10456000E0917904F0917A0428813981348323839E
:10457000828381E0DF91CF911F910F91FF900C9486
:10458000C520E0917904F0917A04F2CF0E942021B5
:10459000D2CFE0917904F0917A0480E0E9CFDF9204
:1045A000EF92FF920F931F93CF93DF9300D0CDB77D
:1045B000DEB7E0917B04F0917C04E080EA94EA9419
:1045C000E0917904F0917A0480818E5F8083E0919C
:1045D0007904F0917A0413828BEAE89E812D1124EC
:1045E0008695982F990F890FE81661F08FEF8283D7
:1045F0000F900F90DF91CF911F910F91FF90EF904F
:10460000DF90089582E00E94C5208091300586FDEC
:1046100036C08BEAE89EE12C1124E694E0917B04FD
:10462000F0917C0482818370D82E8F010D5F1F4F23
:104630001982EE2039F1F12C05C00D5F1F4FF39464
:10464000EF14C1F0D8018D91AD018A83BE016F5F77
:104650007F4F8D2D0E943B22882379F3E0917904CE
:10466000F0917A04D8019C919383828381E00E9427
:10467000C520BECFE0917904F0917A04F6CF0E9474
:104680002021C7CFE0917904F0917A0480E0EDCF4A
:10469000DF92EF92FF920F931F93CF93DF9300D09F
:1046A0001F92CDB7DEB77C0185E08983809130050C
:1046B00083FD41C001E009C060E0812F0E94872195
:1046C000812B015039F1882329F160E081E00E94BB
:1046D0003A1C65E083E00E943A1C0E94AB1CF70183
:1046E00080838A830E94AB1CF70181838B8384E0E3
:1046F0000E942F1DD82ECE0101960E94582011E055
:10470000D812DACF10E060E0812F0E948721812B40
:104710000150C9F6909130059370923009F48D7F65
:104720000F900F900F90DF91CF911F910F91FF90FD
:10473000EF90DF90089503E0C8CFDF92EF92FF92F1
:104740000F931F93CF93DF93CDB7DEB72A970FB6A2
:10475000F894DEBF0FBECDBF82E00E94C5209091CD
:10476000300596FDEDC0E0917B04F0917C048281E0
:104770008295807F8987E68094FDB3C093819F7086
:10478000892B89878FEF8E0D8A878DE78E1510F420
:104790003DE7E32E60E0CE0109960E94F021F82E5D
:1047A000E0917B04F0917C04848195819A878987CC
:1047B0008091300585FF0CC0FF2051F0E091790415
:1047C000F0917A048F010B5F1F4F8DE7D82E36C012
:1047D00060E0CE0109960E94F021F82AE091790468
:1047E000F0917A048F010B5F1F4F8091300585FD9A
:1047F00090C0D12CEE20C9F0C8010E944823F82AAD
:104800000E5F1F4F80913005982F907285FF02C078
:10481000F11010C0D394DE1478F3E0917904F09194
:104820007A04992311F0F11009C0CF0103960E9478
:104830004823F82AE0917904F0917A048E2D880FAC
:1048400093E0980FE080E90EE0828091300584FFCC
:1048500032C085FF62C0FF2009F45FC0E0917B0495
:10486000F0917C048581898384818A8383818B8311
:104870001C828D2D90E0880F991F092E000CAA0B29
:10488000BB0B49815A816B817C81840F951FA61FC8
:10489000B71F89839A83AB83BC838B81F8018083A4
:1048A0008A81818389818283E0917904F0917A04FD
:1048B00080818D5F8083E0917904F0917A04F282A7
:1048C00081E00E94C5202A960FB6F894DEBF0FBE85
:1048D000CDBFDF91CF911F910F91FF90EF90DF90AF
:1048E00008952E2D30E021503109359527953595C5
:1048F00027953595279535952795822B89878FEFB5
:104900008E0D982F9295907F83818F70892B8A8747
:104910003CCFFF2009F46DCF58CFCE0105960E9401
:104920004823E82ECE0107960E9448238E29F82AB4
:104930008885F80180838D8181838E818283B4CFC5
:104940000E942021909130050ECFCF92DF92EF92FE
:10495000FF920F931F93CF93DF9300D000D000D02E
:10496000CDB7DEB782E00E94C5202091300526FD3C
:10497000C1C080E78D83E0917B04F0917C0480814D
:1049800090E0049796958795D82E24FD94C0928147
:104990009F7090679D8381508E8360E0CE01059665
:1049A0000E94F021F82EE0917B04F0917C04838139
:1049B00094819E838D838091300585FF02C0F11024
:1049C00093C060E0CE0105960E94F021F82A009184
:1049D0007B0410917C040B5F1F4FCC24C3948D810A
:1049E000803109F0C12C8091300585FD7AC0DD2031
:1049F00009F485C0E12C6C2DC8010E94F021F82A31
:104A00000E5F1F4F80913005982F907285FF02C076
:104A1000F1106AC0E394ED1470F3009179041091E1
:104A20007A0498012D5F3F4F992311F0F1106FC068
:104A3000C9010E944823F82AE0917904F0917A0490
:104A400080818D5F80838091300584FF1DC085FF4C
:104A500002C0F1100BC0CE0101960E944823E82E3F
:104A6000CE0103960E9448238E29F82A8C81F801F2
:104A70008583898186838A818783E0917904F09197
:104A80007A0480818D5F8083E0917904F0917A04CB
:104A9000F28281E00E94C52026960FB6F894DEBF10
:104AA0000FBECDBFDF91CF911F910F91FF90EF907F
:104AB000DF90CF9008959C0133272150310935951F
:104AC0002795359527953595279535952795206711
:104AD0002D8381508295807F92819F70892B8E8358
:104AE0005CCFFF2009F483CF0091790410917A0400
:104AF000F801A6CF0E942021209130053ACF0091E5
:104B0000790410917A0498012D5F3F4F91CFF801FD
:104B100097CF0F931F93CF93DF9300D01F92CDB702
:104B2000DEB7FC0183E0898390819F70906E9A8349
:104B300081818B838091300583FF2AC060E070E023
:104B4000CE0101960E949520182F60E00E948721D7
:104B5000812B02E00DC060E070E0CE0101960E9462
:104B60009520182F60E00E948721812B015011F0C1
:104B70008111F1CF909130059370923009F48D7FBF
:104B80000F900F900F90DF91CF911F910F9108958B
:104B900060E070E0CE0101960E949520182F60E041
:104BA0000E948721812BE6CF4F925F926F927F9276
:104BB0008F929F92AF92BF92CF92DF92EF92FF922D
:104BC0000F931F93CF93DF9382E00E94C5208091C3
:104BD000300586FD95C0C0917B04D0917C04E091A6
:104BE0007904F0917A047F0184E0E80EF11C808161
:104BF0008E5F8083CB80DC802596612C712CC11464
:104C0000D10409F460C001E010E0512C1DC08730D0
:104C100009F43FC0883029F46114710411F438019B
:104C20008601E42DE695E695E370F0E0EE0FFF1FB8
:104C3000EF5CFA4F808191810E9420070F5F1F4F28
:104C4000C016D10608F440C0A8804980942C8A8000
:104C5000D501C4012BE0B695A795979587952A9520
:104C6000D1F70E9430208630D9F088F68530C9F619
:104C700061E0CE0101960E94F021882321F06114A9
:104C8000710409F43801F70181937F01539423964D
:104C9000C8CFCE0101960E9489258823A1F3EFCFCA
:104CA000C70101960E944823882321F061147104F2
:104CB00009F43801F7018083F3E0EF0EF11C83E083
:104CC000580E2396AECF512CE0917904F0917A04DE
:104CD000738262828081580E508281E0DF91CF9191
:104CE0001F910F91FF90EF90DF90CF90BF90AF900A
:104CF0009F908F907F906F905F904F900C94C52005
:104D00000E94202168CFEF92FF920F931F93CF93C1
:104D1000DF9381E080935D01C0917B04D0917C049E
:104D200068818A819B8190936301809362018C8169
:104D30009D81AE81BF8180935E0190935F01A093BE
:104D40006001B093610142B123B16B3098F50091DD
:104D5000430150914401109142018091450190918D
:104D600046019170402B1095542B412F452342B999
:104D700080FF5AC080914301282B809144019923E0
:104D800009F45AC08095822320914201209528235E
:104D900023B910921A02E0917904F0917A044283C7
:104DA000238383E08083DF91CF911F910F91FF9048
:104DB000EF90089588E1FE013896A5E4B1E00190F6
:104DC0000D928A95E1F708A10093430159A15093F0
:104DD0004401DE0193961AA11093420162526B3096
:104DE00068F5662309F4B9CFEDE4F5E0615070E0B1
:104DF000625B7A4FC1E0D0E007C08095482328234A
:104E00006E177F0709F4A9CF3D91832F87707E012C
:104E100002C0EE0CFF1C8A95E2F7C701E19237FF52
:104E2000ECCF4E298095EBCF8091430180952823CC
:104E3000809144019111A6CF822BA6CF6AE0D4CFF6
:104E4000272F35B7306835BF462F880F77FD816033
:104E50008F70809310F3522F5F77FA01F05C80819E
:104E600095B79F7795BF089595B7906895BF880FC0
:104E700077FD12C0982F9F70909310F39B013F779E
:104E8000F901F05C80812F3F3F4741F031969081DE
:104E900025B72F7725BF08958160ECCF9F5F909352
:104EA00010F3E0E0F0E4908125B72F7725BF089557
:104EB00095B7906895BF982F990F77FD3BC09F706D
:104EC000909310F39B013F77F901F05C60812F3FD5
:104ED0004FE73407F1F0DF0111962F5F3F4F7181EB
:104EE0002F3F8FE7380769F0FD01319611968C91BD
:104EF0002E3F3F4709F13196908125B72F7725BF87
:104F000008959F5F909310F380910040E0E0F0E4FB
:104F1000F2CF9F5F909310F37091004020E030E05B
:104F2000A0E0B0E4FD01319611968C912E3F3F47F1
:104F300011F702C09160C3CF9F5F909310F3E0E040
:104F4000F0E4908125B72F7725BF08950F931F9325
:104F500080915D01823009F45BC0809146018170CF
:104F6000209143019091450190FF5DC093B1922B38
:104F700093B990914401811150C083B1892B83B9B9
:104F8000109289001092880080917C008460809348
:104F90007C0000915E0110915F01209160013091D1
:104FA0006101011580E8180721053105B8F0B90144
:104FB000A80180917C0082FFFCCF80917C008460FE
:104FC00080937C00505861097109411580E85807A9
:104FD0006105710570F71F7722273327C801880FF5
:104FE000991F909387008093860080917C00806158
:104FF00080937C0080918800909189009695879598
:1050000001968017910720F480917C0084FFFCCFEB
:1050100010921A021F910F91089523B1892F809544
:10502000822383B9ADCF33B1922F9095932393B957
:10503000A0CF982F80914501843409F43BC1309171
:10504000430123B180FF1BC2832F822B83B9809140
:105050004601843409F425C13091440123B180FF15
:1050600013C2832F822B83B980914701843409F4C2
:1050700008C180E0E0916201F09163013197F1F79E
:1050800020914801243409F4C9C14091430133B14E
:1050900020FFD2C1242F232B23B92091490124348E
:1050A00009F4B3C14091440133B120FFC0C1242FA2
:1050B000232B23B920914A01243409F49DC1E091A6
:1050C0006201F09163013197F1F720914B01243493
:1050D00009F489C14091430133B120FFB7C1242FA6
:1050E000232B23B920914C01243409F473C140913E
:1050F000440133B120FFA5C1242F232B23B92091D4
:105100004D01243409F45DC1E0916201F091630125
:105110003197F1F720914E01243409F449C14091AF
:10512000430133B120FFA6C1242F232B23B92091A3
:105130004F01243409F433C14091440133B120FFBD
:1051400094C1242F232B23B920915001243409F436
:105150001DC1E0916201F09163013197F1F7209157
:105160005101243409F409C14091430133B120FFB6
:1051700077C1242F232B23B920915201243409F421
:10518000F3C04091440133B120FF65C1242F232B8C
:1051900023B920915301243409F4DDC0E091620168
:1051A000F09163013197F1F720915401243409F40F
:1051B000C9C04091430133B120FF7AC1242F232B72
:1051C00023B920915501243409F4B3C0409144011E
:1051D00033B120FF68C1242F232B23B9209156011E
:1051E000243409F49DC0E0916201F091630131978C
:1051F000F1F720915701243409F489C0409143010B
:1052000033B120FF5FC1242F232B23B920915801F4
:10521000243409F473C04091440133B120FF4DC1DF
:10522000242F232B23B920915901243409F45DC084
:10523000E0916201F09163013197F1F720915A01F9
:10524000243409F449C09091430120FF27C123B1C0
:10525000922B93B990915B019434A9F13091440160
:1052600023B190FF16C1932F922B93B990915C01BB
:10527000943479F0E0916201F09163013197F1F794
:10528000089521B180914201282381E009F0F2CEF6
:10529000F0CE91B180914201982381E059F780E0EE
:1052A000E9CF8091440123B160FDDCCE809582235B
:1052B00083B9DACE8091430123B190FDC6CE8095AB
:1052C000822383B9C4CE9091440123B160FDCCCF39
:1052D0009095922393B9CACF3091430123B190FFA7
:1052E000F6C0932F922B93B9B5CF21B18091420193
:1052F000282381E009F09CCF80E09ACF20914401DF
:1053000033B160FD8ECF2095232323B98CCF20911C
:10531000430133B190FD78CF2095232323B976CF75
:1053200021B180914201282381E009F05CCF80E027
:105330005ACF2091440133B160FD4ECF20952323F5
:1053400023B94CCF2091430133B190FD38CF209544
:10535000232323B936CF21B180914201282381E054
:1053600009F01CCF80E01ACF2091440133B160FDD9
:105370000ECF2095232323B90CCF2091430133B1C5
:1053800090FDF8CE2095232323B9F6CE21B180914C
:105390004201282381E009F0DCCE80E0DACE2091C2
:1053A000440133B160FDCECE2095232323B9CCCE6A
:1053B0002091430133B190FDB8CE2095232323B92A
:1053C000B6CE21B180914201282381E009F09CCE24
:1053D00080E09ACE2091440133B160FD8ECE2095BD
:1053E000232323B98CCE2091430133B190FD78CE95
:1053F0002095232323B976CE21B180914201282321
:1054000081E009F05CCE80E05ACE2091440133B1B6
:1054100060FD4ECE2095232323B94CCE209143012D
:1054200033B190FD38CE2095232323B936CE242FD7
:105430002095232323B93ECE242F2095232323B95F
:105440002CCE242F2095232323B959CE242F209509
:10545000232323B947CE242F2095232323B999CE84
:10546000242F2095232323B987CE242F209523236F
:1054700023B96ACE242F2095232323B958CE832F16
:105480008095822383B9E3CD832F8095822383B9CE
:10549000EBCD932F9095922393B9E8CE23B19095BD
:1054A000922393B9D7CE242F2095232323B996CEC8
:1054B000242F2095232323B984CE242F2095232322
:1054C00023B9B1CE242F2095232323B99FCE932F28
:1054D0009095922393B9BECE0F931F93CF93DF93F2
:1054E00090915D01923079F1D82F109145011170A2
:1054F000C0914601C17001E0C02790911A02992322
:10550000C9F001E0D91769F06C2F812F0E9419288A
:1055100090911A02933051F09F5F90931A02D91321
:10552000F3CFDF91CF911F910F91089500931A024D
:1055300091E0E8CF6C2F6095812F0E94192800938D
:105540001A0291E0DECF80931A02DF91CF911F9172
:105550000F9108952F923F924F925F926F927F9298
:105560008F929F92AF92BF92CF92DF92EF92FF9273
:105570000F931F93CF93DF93CDB7DEB768970FB626
:10558000F894DEBF0FBECDBFFC0190914501917034
:1055900020914601209521702C87408051806280A7
:1055A000738010928B0010928A0010928C001092DF
:1055B0007D0082E080938A001B86212C1D8220952D
:1055C000298B90959A8B122D109289001092880049
:1055D00080917C00846080937C00730162014FEFB6
:1055E000C41AD40AE40AF40AC301B2010E942027B3
:1055F000082F90E080319105E0F010928A0081E060
:1056000068960FB6F894DEBF0FBECDBFDF91CF9185
:105610001F910F91FF90EF90DF90CF90BF90AF90D0
:105620009F908F907F906F905F904F903F902F90C2
:105630000895FC01EA53FF4F0C944646C701B6019A
:105640000E9458276B017C01B5E04B0E511C611C78
:10565000711C80915D01823009F0B6CFCE010196B8
:105660000E9448238D832FEFC216D206E206F2066F
:1056700009F4AACF3981D701C6010196A11DB11D38
:1056800025B7206825BFB701A6010FE0769567957D
:10569000579547950A95D1F74F70409310F3E894CA
:1056A000D7F8F601F05C308325B72F7725BF3A8114
:1056B00025B7206825BFAC01BD012FE07695679521
:1056C000579547952A95D1F74F70409310F39F77E0
:1056D000FC01F05C308385B78F7785BF75CFC7013C
:1056E000B6010E9434279A83898393E0490E511CA6
:1056F000611C711C80915D01823009F065CF60E012
:10570000CE0101960E94F0218D835ECF81E00E9440
:105710006C2A2601370158CFC701B6010E94202705
:105720008B83C301B2016E5F7F4F8F4F9F4F0E94EB
:1057300058276B017C015301420166E0860E911CE3
:10574000A11CB11C77E0470E511C611C711C2B8001
:1057500000E02FC00E94202791B18770E82FF0E071
:10576000E35BFA4F8081892309F0102B0695D9F469
:1057700085B7806885BFD701C6015FE0B695A7955C
:10578000979587955A95D1F78F70809310F3F6010E
:10579000FF77F05C108385B78F7785BF8FEFC81ACE
:1057A000D80AE80AF80A2A949FEF491A590A690A9E
:1057B000790AC301B201615071098109910922205E
:1057C00009F45EC20111C6CF0E94202791B18770F3
:1057D000E82FF0E0E35BFA4F8081892300E409F0D1
:1057E00041C210E0E0CF42E0440E511C611C711C2C
:1057F000C701B6010E942027B82E082FC301B201AD
:1058000006C08095892383B90150C701B6010023E2
:1058100009F431C26B017C015FEFC51AD50AE50AB4
:10582000F50A0E942027182FE82FE770F0E0E35BCD
:10583000FA4F808193B117FFE4CF892B83B9E4CF6E
:1058400022E0420E511C611C711CC701B6010E946E
:105850002027882309F4B8CE082F06C08F5F0E9446
:105860006C2A015009F4B0CE80911A028330B1F74E
:1058700081E0F5CFC701B6010E942027082F0170F3
:10588000C301B2016E5F7F4F8F4F9F4F0E94582719
:105890006B017C0196E0490E511C611C711C8091CA
:1058A0005D01823009F4E0C191B1809142019823F9
:1058B00011E009F410E0101709F4DBC180917C00BD
:1058C00082FF11C080917C00846080937C00A1E005
:1058D000CA16A0E8DA06E104F10408F4B8C1B0E899
:1058E000DB1AE108F1084091880050918900569533
:1058F00047955A83498360E070E04C155D056E055D
:105900007F0568F221E02D835FCEC701B6010E94BA
:1059100058276B017C0125E0420E511C611C711C53
:10592000611540E8740781059105C0F0AB01BC0129
:1059300080917C0082FFFCCF80917C00846080930A
:105940007C00505861097109411580E858076105CC
:10595000710570F7E894D7F8EE24FF24C601880F8C
:10596000991F909387008093860080917C008061CE
:1059700080937C008091880090918900969587950E
:1059800001968C159D0508F01FCE80917C0084FD4A
:105990001BCE80917C0084FFF8CF16CE0E94A627F4
:1059A0002601370111CE5301420162E0860E911C9F
:1059B000A11CB11CC701B6010E94202790915D0176
:1059C000923009F495C1082F0170C501B4010E94FD
:1059D00058276B017C0186E0480E511C611C711C2C
:1059E00080915D01813009F4B8C3B988AA888230FA
:1059F00099F16B2D8A2D0E94192811E0811101C0A7
:105A000010E0011779F180917C0082FF11C0809134
:105A10007C00846080937C0091E0C91690E8D906F0
:105A2000E104F10408F44EC1A0E8DA1AE108F10833
:105A30008091880090918900969587959A838983B3
:105A4000A0E0B0E08C159D05AE05BF0508F0C9C308
:105A500080915D01823069F681E00E942F1D182F30
:105A60000113D1CF1D8238C1C701B6010E9434276E
:105A70009A83898343E0440E511C611C711C209160
:105A80005D01223009F44DC1213009F472C39C013B
:105A9000215031093A832983892B09F495CD09894D
:105AA000FA88602F8F2D0E94192889819A819C0184
:105AB000215031093A832983892B99F785CDC70174
:105AC000B6010E9434279A838983C301B2016D5FB6
:105AD0007F4F8F4F9F4F0E9458276E837F83888709
